:10000000FC7F012069A200004DA100004DA100006D
:100010004DA100004DA100004DA100004DA1000028
:100020004DA100004DA100004DA100004DA1000018
:100030004DA100004DA100004DA1000055A1000000
:100040004DA100004DA100004DA100004DA10000F8
:100050004DA100004DA100004DA100004DA10000E8
:100060004DA100004DA100004DA100004DA10000D8
:100070004DA100004DA100004DA100004DA10000C8
:100080004DA100004DA100004DA100004DA10000B8
:100090004DA100004DA100004DA100004DA10000A8
:1000A0004DA100004DA100004DA100004DA1000098
:1000B0004DA100004DA100004DA100004DA1000088
:1000C0004DA100004DA100004DA100004DA1000078
:1000D0004DA100004DA100004DA100004DA1000068
:1000E0004DA100004DA100004DA100004DA1000058
:1000F0004DA100004DA100004DA100004DA1000048
:100100004DA100004DA100004DA100004DA1000037
:0C0110004DA100004DA100004DA1000019
:10A2680081B000F053FA02210E20FFF7A3FF2AF075
:10A278006FFC2AF02DFCFFF799F80521A74801701B
:10A28800012149B2A6480160FF21A648FFF73EFF19
:10A29800FFF7B6F940F2E83141430620B1FBF0F090
:10A2A800411EA1480160012252B2A049086862F328
:10A2B800820008609E49086862F30000086040F266
:10A2C8000F00FFF7A3F9012252B29A49086862F316
:10A2D800410008609848006840F47F019648016092
:10A2E800FFF722F94FF4E130FFF726F949F6FF6747
:10A2F800C0F2240700BF00BF7F1EFDD100BF00BF12
:10A308000D20FCF7A3FB0A20FCF7A0FB8B48FFF706
:10A3180099FA0D20FCF79AFB0A20FCF797FBFFF748
:10A32800A7FA012001B440F240530F220C218448BF
:10A33800FDF7B2FF01B0102282498348FFF7A2F966
:10A3480046F6FE37C0F2DC277F1EFDD100BF00BFF6
:10A3580000BF00BF00BF00BF012149B27B480160B8
:10A368007A49086828B10520FFF73CFA7749086060
:10A37800F6E77748FFF766FAFFF7C2FE042212B243
:10A3880001467448FDF764FF724800787249F7F790
:10A39800C9FA2E2171480170714800787149F7F7A0
:10A3A800C1FA2E2170480170704800787049F7F79B
:10A3B800B9FA2E216F4801706F4800786F49F7F796
:10A3C800B1FA00216E4801706348FFF73BFA0D208F
:10A3D800FCF73CFB0A20FCF739FB6A48FEF794FEC1
:10A3E8004F49086800283DD0FEF7F6F84B4800783A
:10A3F800002836D1FF2164480170012163480170AB
:10A40800002163480170042162480170624A1068A3
:10A4180001786248017010460068401C0178604865
:10A42800017010460068801C01785E480170104673
:10A438000068C01C01785C48017008215248F7F791
:10A4480058FB5A4908700921594802B44E4B40F24A
:10A45800574240F25741F7F755F801B005212F4808
:10A468000170BDE75348FEF74FFE43F2FF57C0F2B5
:10A478006E177F1EFDD100BF00BF00BF00BFFFF7F2
:10A4880055FEFFF7D7FD0F21244801704A4801788F
:10A498004A480078884203D34748007800B116E05C
:10A4A800FEF79AF81D48007820B9FFF7C3FD0F2181
:10A4B8001A480170FFF756FA4AF67F17C0F20307E9
:10A4C8007F1EFDD100BF00BF00BF00BFDEE73C48D4
:10A4D800007800B1FBE7002149B23A480160FFF774
:10A4E8002BFA10B10520FFF77DFDFEF775F8FFF791
:10A4F80095FBFFF737FAFEF751FF002800F0E380DD
:10A50800FFF704F830490870C8E03048FFF79AF9B7
:10A518000D20FCF79BFA0A2000F05AB816240020F8
:10A52800647E04220040004014E000E010E000E0F7
:10A5380010E000E010E000E020ED00E07D030020E6
:10A54800005002408303002090010020747E042202
:10A558008703002017240020C1230020C4230020E3
:10A5680018240020C5230020C82300201924002017
:10A57800C9230020CC2300201A240020CD2300204A
:10A58800D0230020910300205A0700205B070020F9
:10A598005C0700205D070020700200205E07002095
:10A5A8005F07002060070020610700206207002085
:10A5B800D44A0300A6030020FB23002081070020C3
:10A5C800A6010020607E04221B240020B90300207D
:10A5D800FCF73CFAFF213D48017001213C4801701D
:10A5E80004213C4801703C4A106801783B480170DE
:10A5F80010460068401C0178394801701046006810
:10A60800801C01783748017010460068C01C01782A
:10A618003548017007212D48F7F76BFA3349087060
:10A628000821334802B4294B40F2574240F25741BF
:10A63800F6F768FF01B046E02E48FFF703F90D2052
:10A64800FCF704FA0A20FCF701FAFFF7F3FC3AE0FA
:10A658002948FFF7F7F80D20FCF7F8F90A20FCF76E
:10A66800F5F90120FDF7FEFA2DE02448FFF7EAF896
:10A678000D20FCF7EBF90A20FCF7E8F90021204847
:10A68800017020E01F48FFF7DDF80D20FCF7DEF928
:10A698000A20FCF7DBF9FEF7DDFE14E01A48007823
:10A6A80063283FF432AF184800786C28C4D01648A5
:10A6B80000786628CCD0144800787328D5D0124882
:10A6C80000787228DED00AE7FEE700BF5A070020AC
:10A6D8005B0700205C070020700200205D07002057
:10A6E8005E0700205F070020600700206107002048
:10A6F800D44A0300CD030020DD030020ED03002031
:0CA70800A6010020F90300201B24002003
:1093B40081B0CDF800E0002001B440F24013012256
:1093C40008211B48FEF76AFF01B0002149B2194881
:1093D40001608020FEF774FB81211748FEF7ACFC86
:1093E40030211648FEF7A8FC04211548FEF7A4FC1A
:1093F400FEF7B4FCF02140F24010FEF7BDFC002063
:10940400FEF728FBFFF700F90E4801880E4801809B
:109414000E4801880E4801800E48FFF777FE0121AF
:1094240049B204480160DDF800E001B0704700BFB4
:10943400004000408C7F0842005000400040024041
:109444000070024002070020FC06002004070020F0
:08945400FE0600200E040020BA
:1082A00082B0CDF800E01FFA83F9CBB2D5B29DF8C9
:1082B0000870C44C00EA0404A0462046FEF7D8FB30
:1082C0003DB908F58066DD43EDB234682C4034607A
:1082D00006E0012D04D108F580652C681C432C6054
:1082E00009F00104A4B22CB108F5A2652C681C4366
:1082F0002C6006E008F5A266DD43EDB234682C4040
:10830000346009F00204A4B22CB108F214552C68B0
:108310001C432C6006E008F21456DD43EDB23468CD
:108320002C40346009F00804A4B22CB108F20C55BA
:108330002C681C432C6006E008F20C56DD43EDB2BD
:1083400034682C40346009F01004A4B22CB108F554
:10835000A0652C681C432C6006E008F5A066DD4390
:10836000EDB234682C40346009F02004A4B22CB182
:1083700008F204552C681C432C6006E008F20456F1
:10838000DD43EDB234682C40346009F04004A4B2FF
:108390002CB108F5A1652C681C432C6006E008F59B
:1083A000A166DD43EDB234682C40346009F08004EE
:1083B000A4B264B109F04004A4B22CB108F5A365DD
:1083C0002C681C432C6001E00120F6E006E008F573
:1083D000A366DD43EDB234682C40346009F4807448
:1083E000A4B22CB108F21C552C681C432C6006E08A
:1083F00008F21C56DD43EDB234682C40346009F4B9
:108400000074A4B2002C3DD06F4CA04540F2000592
:1084100000D00125EDB26D4CA04540F2000400D023
:108420000124E4B22540EDB2694CA04540F20004BD
:1084300000D00124E4B22540EDB2664CA04540F2E4
:10844000000400D00124E4B22540EDB2624CA04506
:1084500040F2000400D00124E4B22540EDB25F4CAC
:10846000A04540F2000400D00124E4B205EA04046F
:10847000E4B20CB10120A0E008F5A5652C681C430E
:108480002C603CE0504CA04540F2000500D1012595
:10849000EDB24E4CA04540F2000400D10124E4B2FC
:1084A0002543EDB24A4CA04540F2000400D101241E
:1084B000E4B22543EDB2474CA04540F2000400D1A0
:1084C0000124E4B22543EDB2434CA04540F2000440
:1084D00000D10124E4B22543EDB2404CA04540F266
:1084E000000400D10124E4B245EA0404E4B234B14A
:1084F00008F5A566DD43EDB234682C40346009F41C
:108500008064A4B22CB108F584652C681C432C60EF
:1085100006E008F58466DD43EDB234682C40346033
:108520000FB9002049E00B2F01D9012045E00021BF
:1085300000200191DAB2C3B24046F9B2019F082B84
:1085400012D222FA03F4E4B204F00104E4B244B11A
:108550009D002DB24FF00F04AC4047EA04052F46B2
:10856000FFE75B1CDBB2EAE700F22C56FD43346800
:108570002C403460002600238DF80420CAB29DF8F8
:108580000410082B13D221FA03F4E4B204F001041E
:10859000E4B24CB1D5B29C0024B205FA04F446EA28
:1085A000040425462E46FFE75B1CDBB2E9E700F238
:1085B0002C552C6834432C600020DDF800E002B01C
:1085C000704700BF00F0FFFF007000400040024015
:1085D0000050004000B0054000C00540009005403C
:0085E0009B
:106A700081B08A4900EA01010846F1E088490968C5
:106A800041F0010286490A6086490A686FF00101F7
:106A90000A4084490A603FE18149096841F00102E6
:106AA0007F490A607F49096841F001027D490A6017
:106AB00032E17B49096841F0020279490A6079496B
:106AC0000A686FF002010A4076490A6024E17449BD
:106AD000096841F0020272490A607249096841F08E
:106AE000020270490A6017E16D49096841F0040229
:106AF0006B490A606B490A686FF004010A406949F2
:106B00000A6009E16649096841F0040264490A60C3
:106B10006449096841F0040262490A60FCE0604986
:106B2000096841F008025E490A605E490A686FF030
:106B300008010A405B490A60EEE05949096841F0E2
:106B4000080257490A605749096841F00802554947
:106B50000A60E1E05249096841F0100250490A60B8
:106B600050490A686FF010010A404E490A60D3E0AC
:106B70004B49096841F0100249490A6049490968CE
:106B800041F0100247490A60C6E04549096841F0F2
:106B9000200243490A6043490A686FF020010A4015
:106BA00040490A60B8E03E49096841F020023C498A
:106BB0000A603C49096841F020023A490A60ABE0AA
:106BC0003749096841F0400235490A6035490A6889
:106BD0006FF040010A4033490A609DE0304909687E
:106BE00041F040022E490A602E49096841F04002F6
:106BF0002C490A6090E02A49096841F0800228493E
:106C00000A602849096801F07F0226490A6083E08A
:106C10002349096841F0800221490A602149096835
:106C200041F080021F490A6076E01D49096841F47D
:106C300080721B490A601B490A686FF480710A4020
:106C400018490A6068E01649096841F480721449DD
:106C50000A601449096841F4807212490A605BE0D5
:106C6000B0F1402F3FF40AAF0F4988423FF414AF10
:106C70000E4988423FF41DAF0D4988423FF427AFCB
:106C80000C4988423FF430AF0B4988423FF43AAF99
:106C90000A4988423FF443AF00F012B800F0FFFF0A
:106CA00008E10F406CE00F400080054000500040BC
:106CB000009005400060004000A0054000700040CA
:106CC000164988423FF439AF154988423FF442AF34
:106CD000144988423FF44CAF134988423FF455AF02
:106CE000124988423FF45FAF114988423FF468AFD0
:106CF000104988423FF472AF0F4988423FF47BAF9E
:106D00000E4988423FF484AF0D4988423FF48DAF6D
:106D10000C4988423FF497AF01B0704700B005407E
:106D20000040024000C005400050024000D0054035
:106D30000060024000E005400070024000F00540A5
:086D400000D0034000000640F2
:107AC40081B0CDF800E0C3B203F0800109B261B126
:107AD4001248FEF7CBFF124A12490A60012252B241
:107AE40011490A6000220F490A6003F00F01C9B26C
:107AF400CBB271B10D48FEF7B9FF094A0C490A60CF
:107B04000C49096841EA03020A490A60002208494B
:107B14000A60DDF800E001B0704700BF005000408B
:107B24004B434F4C205500409CA40A420060004047
:087B34002065004024650040BB
:107D3C0081B0CDF800E0002204B440F240130022E0
:0E7D4C0000F0A8FA01B0DDF800E001B07047C9
:107D600081B049F6FF67C0F224077F1EFDD100BF36
:0A7D700000BF00BF00BF01B0704764
:107D7C0081B0CDF800E01D4A1288012A08D01C4BB6
:107D8C001C4A13601C4B1D4A13601D4B1D4A13608B
:107D9C001D4A10801D4A1180884203D900231C4AB9
:107DAC00137002E05A231A4A1370012140F20000AA
:107DBC00FEF780FD0023002208B404B40023002247
:107DCC0000210020FEF756FD02B000210020FEF736
:107DDC0045FD00230F4A1370FFF752FB0E4B0F4A61
:107DEC001360DDF800E001B0704700BF38040020DC
:107DFC00C9330000DC2D0020FD470000E02D0020E1
:107E0C00FD690000CC2D0020982D00209A2D00201B
:107E1C00E42D0020A42D0020BD6F0000C82D0020F3
:007E2C0056
:1068C00081B0034A1080034A117001B0704700BFC5
:0868D000D02D0020D22D002084
:1068800081B0BDF80450BDF80860074C2070074C7B
:106890002180074C2270074C2370074C2580074C41
:1068A000268001B0704700BFD32D0020DA2D0020D4
:1068B000D42D0020D52D0020D62D0020D82D00204D
:0068C000D8
:1068680081B0034A1080034A118001B0704700BF0D
:08687800C22D0020B22D00200A
:10748C0081B0CDF800E0FEF73DFF00F063FC012178
:10749C0049B29748016000F05DFC00F05BFC0021F4
:1074AC00EA20FEF7A3FF2021EB20FEF79FFF0C2123
:1074BC00EC20FEF79BFFC421ED20FEF797FF402147
:1074CC00E820FEF793FF3821E920FEF78FFF01211A
:1074DC00F120FEF78BFF1021F220FEF787FFA3218E
:1074EC002720FEF783FF00214020FEF77FFF0021BD
:1074FC004120FEF77BFF01214220FEF777FF13218D
:10750C004320FEF773FF10214420FEF76FFF262166
:10751C004520FEF76BFF08214620FEF767FF51213F
:10752C004720FEF763FF02214820FEF75FFF122180
:10753C004920FEF75BFF18214A20FEF757FF19215F
:10754C004B20FEF753FF14214C20FEF74FFF19215F
:10755C005020FEF74BFF2F215120FEF747FF2C2127
:10756C005220FEF743FF3E215320FEF73FFF3F2101
:10757C005420FEF73BFF3F215520FEF737FF2E210D
:10758C005620FEF733FF77215720FEF72FFF0B21F4
:10759C005820FEF72BFF06215920FEF727FF072165
:1075AC005A20FEF723FF0D215B20FEF71FFF1D2144
:1075BC005C20FEF71BFFCC215D20FEF717FF4D482A
:1075CC0000785A2810D100210420FEF70FFFEF217C
:1075DC000520FEF70BFF01210820FEF707FF3F21D6
:1075EC000920FEF703FF0FE001210420FEF7FEFE49
:1075FC003F210520FEF7FAFE00210820FEF7F6FEDB
:10760C00EF210920FEF7F2FE3A4800785A280DD1F6
:10761C0039480078012804D1C8211620FEF7E6FE6F
:10762C0003E008211620FEF7E1FE0CE0324800785A
:10763C00012804D1A8211620FEF7D8FE03E068210A
:10764C001620FEF7D3FE1B211B20FEF7CFFE0121D7
:10765C001A20FEF7CBFE2F212420FEF7C7FE572160
:10766C002520FEF7C3FE8D212320FEF7BFFE362119
:10767C001820FEF7BBFE01211920FEF7B7FE0021F2
:10768C000120FEF7B3FE88211F20FEF7AFFEFEF7A8
:10769C00DDFE80211F20FEF7A9FEFEF7D7FE90210C
:1076AC001F20FEF7A3FEFEF7D1FED0211F20FEF710
:1076BC009DFEFEF7CBFE05211720FEF797FE00215D
:1076CC003620FEF793FE38212820FEF78FFEFEF7BA
:1076DC00ADFEFEF7ABFEFEF7A9FEFEF7A7FE3C21C2
:1076EC002820FEF783FEDDF800E001B0704700BFF4
:0C76FC00947F4E42E42D00203A04002050
:1063100081B0CDF800E047F20040C4F202004FF037
:1063200001014FEA411140F240130122C9B2FDF7C9
:106330003FF8002149B22B48016046F20040C4F208
:1063400002004FF001014FEAC11140F24013012257
:10635000C9B2FDF72DF8012149B22348016047F287
:106360000040C4F202004FF001014FEA811140F2F7
:1063700040130122C9B2FDF71BF8012149B21B48A5
:10638000016046F20040C4F200004FF001014FEA04
:10639000411140F240130122C9B2FDF709F847F25A
:1063A0000040C4F202004FF001014FEA011140F237
:1063B00040130122C9B2FCF7FBFF012149B20C488E
:1063C00001600C4801604DF20040C4F2030040F24D
:1063D00040130122FF21FCF7EBFFDDF800E001B0E4
:1063E000704700BF947F4E429C7F4C42987F4E4244
:0863F000947F0C42907F4E42A5
:1033B00081B0CDF800E0002410B404F071FF01B03A
:0833C000DDF800E001B07047E8
:1063F80082B0CDF800E08DF8041000235BB2094AA2
:106408001360094C2468A0479DF80400074C2468D1
:10641800A04701235BB2034A1360DDF800E002B035
:10642800704700BF987F4E42DC2D0020E02D0020F1
:0064380064
:1033C80081B000235BB205490B6005490870054AC6
:1033D8001360012149B2116001B070479C7F4C42D3
:0833E800FCD30340907F4E422C
:1047FC0081B001235BB205490B60054908700022AA
:10480C0052B204490A600B6001B070479C7F4C4265
:08481C00FCD30340907F4E42E3
:1050400081B0CDF800E0FCF74BFDFCF749FD0024F2
:1050500064B2094B1C60012252B208490A60084937
:105060000C600849087008490C600A601A60DDF895
:1050700000E001B0704700BF987F4E42947F0C4221
:0C5080009C7F4C42FCD30340907F4E42CA
:101AE00081B040F21707C0F200077F1EFDD100BF92
:0A1AF00000BF00BF00BF01B0704747
:104FF40081B0CDF800E0002464B20B4B1C600122A8
:1050040052B20A490A600A490A600A4908700A4900
:105014000C600A601A60FCF761FDFCF75FFDDDF8C7
:1050240000E001B0704700BF987F4E42947F0C426D
:0C5034009C7F4C42FCD30340907F4E4216
:1064580081B04DF2BE47C0F201077F1EFDD100BFDB
:0E64680000BF00BF00BF00BF00BF01B0704703
:1064380081B04AF67F17C0F203077F1EFDD100BF67
:0A64480000BF00BF00BF01B07047A5
:107A580084B0CDF800E0ADF80C00002252B2124913
:107A68000A6000210020114C2468A04710490A88A8
:107A7800104909885143029100210191029A019904
:107A8800914208D2BDF80C000B4C2468A04701991C
:107A9800491C0191F2E7012252B203490A60DDF85C
:107AA80000E004B0704700BF987F4E42C82D002008
:0C7AB800982D00209A2D0020CC2D0020DD
:106FBC0083B0CDF800E0ADF80400ADF80810022065
:106FCC00174C2468A047BDF80420140AE0B2154CF5
:106FDC002468A0470320124C2468A047BDF8040085
:106FEC00104C2468A04706200D4C2468A047BDF81F
:106FFC000820140AE0B20B4C2468A0470720084C68
:10700C002468A047BDF80800064C2468A04722203D
:10701C00034C2468A047DDF800E003B0704700BFC4
:08702C00DC2D0020E02D002006
:106ECC0083B0CDF800E0ADF80400ADF808102A202E
:106EDC00144C2468A04701AA521C1278D4B2E0B218
:106EEC00114C2468A047BDF804000F4C2468A0473F
:106EFC002B200C4C2468A04702AA521C1278D4B246
:106F0C00E0B2094C2468A047BDF80800064C246880
:106F1C00A0472C20034C2468A047DDF800E003B008
:0C6F2C00704700BFDC2D0020E02D00208D
:106F380083B0CDF800E0ADF80400ADF808102A20C1
:106F4800134C2468A047BDF80420140AE0B2114C81
:106F58002468A047BDF804000E4C2468A0472B20E5
:106F68000B4C2468A047BDF80820140AE0B2094C6D
:106F78002468A047BDF80800064C2468A0472C20C8
:106F8800034C2468A047DDF800E003B0704700BF59
:086F9800DC2D0020E02D00209B
:1079EC0081B0CDF800E085B28EB22A20FDF722FBE3
:1079FC002A0AD0B2FDF7F8FAE8B2FDF7F5FA03203F
:107A0C00FDF7F2FA1F20FDF7EFFA2B20FDF712FB22
:107A1C00320AD0B2FDF7E8FAF0B2FDF7E5FA012030
:107A2C00FDF7E2FADF20FDF7DFFA2C20FDF702FB71
:087A3C00DDF800E001B0704725
:107A440081B0CDF800E0FDF797FDDDF800E001B06E
:027A5400704779
:10557C0081B005490860054A116801B9FBE7024989
:10558C00086801B0704700BF0880004088011042D5
:00559C000F
:10696C0081B0CDF800E0FEF7C1FBDDF800E001B02E
:02697C00704762
:1050F80081B005490860054A116801B9FBE7024912
:10510800086801B0704700BF08900040880112424B
:0051180097
:106A540081B0044A116801B1FBE70349086001B041
:0C6A6400704700BF1403184200C000403F
:106A380081B0044A116801B1FBE70349086001B05D
:0C6A4800704700BF14031A4200D0004049
:1069800081B0044A116801B1FBE70349086001B016
:0C699000704700BF14031C4200E00040F0
:1069FC0082B0ADF80400012676B209490E6001ADF3
:106A0C00691C0978074C217000235BB2064A13609D
:106A1C001660297821701360166002B0704700BFB1
:0C6A2C009C7F4C42FCD30340907F4E4204
:10699C0081B0CDF800E085B2E90AC8B2C100CEB230
:1069AC00F109C9B2012902D1F11DC8B200E0F0B25F
:1069BC00FEF71AFB6909C8B28100CEB2F109C9B25F
:1069CC00012902D1F11CC8B200E0F0B2FEF70CFBB9
:1069DC00E900CDB2E909C9B2012902D1E91DC8B259
:1069EC0000E0E8B2FEF700FBDDF800E001B0704714
:0069FC009B
:10860C0081B04FF6FF717648018040F240117548F9
:10861C000180F02174480180012174480180744963
:10862C0074480160012174480180744974480160E8
:10863C000221744801704EF29F717348018040F220
:10864C00401172480180F021714801800D21714860
:10865C0001807149714801600221714801807149A2
:10866C00714801600F21714801705D4970480160CB
:10867C0000217048017000216F48018000216F4873
:10868C00018040F240116E480180F0216D4801805C
:10869C0000216D48017001216C4801706C496D48D6
:1086AC00016001216C48017000216C4801700021AF
:1086BC006B48016000216B48016000216A48016031
:1086CC0000216A48016046496948016001216948F6
:1086DC0001706C2168480180942168480180362122
:1086EC00674801800C2167480180012166480170B0
:1086FC00002166480170664966480160664A674811
:10870C00026000216648018000216648016000215A
:10871C0065480160002165480160002164480160E2
:10872C00394964480160002163480170F2216348B3
:10873C0001800021624801804E21624801804D2158
:10874C00614801800021614801700121604801707D
:10875C006049614801600121604801700021604856
:10876C00017000215F48016000215F480160002119
:10877C005E48016000215E48016023495D4801604C
:10878C0001215D4801700A215C48018008215C4888
:10879C00018032215B4801800C215B480180012162
:1087AC005A48017000215A4801705A495A480160D0
:1087BC005A495B48016000215A48018000215A48FF
:1087CC0001600021594801600021594801600021D5
:1087DC00584801600C4958480160022100F0AEB8BD
:1087EC0000070020020700200407002008070020D3
:1087FC00DC1A00000C07002010070020D04A0300F0
:10880C001407002006070020180700201A07002074
:10881C001C07002020070020E84903002407002043
:10882C0028070020C84A03002C0700201E07002040
:10883C00680400206C0400206E04002070040020EA
:10884C0072040020740400207E0400207F040020A9
:10885C0074A70000780400207C0400207D04002014
:10886C008004002084040020880400208C04002054
:10887C003C0400204004002042040020440400205A
:10888C004604002048040020560400205704002011
:10889C00000000204C0400208D3D030050040020FB
:1088AC0054040020580400205C04002060040020C4
:1088BC0064040020CC060020D0060020D206002044
:1088CC00D4060020D6060020D8060020E2060020A0
:1088DC00E30600207AFF0200DC060020E006002000
:1088EC00E1060020E4060020E8060020EC0600204B
:1088FC00F006002090040020940400209604002030
:10890C00980400209A0400209C040020AA04002053
:10891C00AB04002015000020A0040020E436030066
:10892C00A4040020A8040020AC040020B004002003
:10893C00B4040020B8040020BC0400207748017067
:10894C001E21774801801C2176480180122176482F
:10895C0001800C21754801800021754801700121AE
:10896C0074480170744975480160754802600021B3
:10897C007448018000217448016000217348016033
:10898C0000217348016000217248016072497348EC
:10899C0001600321724801701E21724801802C2154
:1089AC00714801800B21714801800C2170480180B5
:1089BC0000217048017001216F4801706F497048A7
:1089CC0001607048026000216F48018000216F48EF
:1089DC00016000216E48016000216E480160002199
:1089EC006D4801605C496D48016004216C48017060
:1089FC000A216C4801801C216B4801800E216B48B8
:108A0C0001800E216A48018000216A480170012111
:108A1C006948017069496A4801600121694801701F
:108A2C0000216948017000216848016000216848F4
:108A3C0001600021674801600021674801604649D8
:108A4C00664801600521664801701E216548018059
:108A5C003C21654801800B21644801800C2164484D
:108A6C000180002163480170012163480170634952
:108A7C006348016063480260002163480180002163
:108A8C006248016000216248016000216148016078
:108A9C00002161480160304960480160062160484E
:108AAC0001701E215F4801804C215F4801800B2121
:108ABC005E4801800C215E48018000215D480170F8
:108ACC0001215D4801705D495D4801605D480260AF
:108ADC0000215D48018000215C48016000215C4858
:108AEC00016000215B48016000215B4801601A496C
:108AFC005A48016007215A4801701E2159480180CB
:108B0C005C21594801800B21584801800C215848A0
:108B1C00018000215748017000F0AEB8C00400205D
:108B2C00C2040020C4040020C6040020C804002095
:108B3C00D6040020D70400201C000020CC04002008
:108B4C00D0040020D4040020D8040020DC04002031
:108B5C00E0040020E404002018070020E8040020B2
:108B6C00EC040020EE040020F0040020F2040020AD
:108B7C00F404002002050020030500203B00002027
:108B8C00F8040020FC04002000050020040500204F
:108B9C00080500200C0500201005002030070020DF
:108BAC003407002036070020380700203A07002041
:108BBC003C070020460700204707002057480300C9
:108BCC0040070020440700204507002048070020EC
:108BDC004C070020500700205407002014050020EB
:108BEC00180500201A0500201C0500201E05002079
:108BFC00200500202E0500202F0500205A00002003
:108C0C0024050020280500202C050020300500201C
:108C1C0034050020380500203C05002040050020CC
:108C2C004405002046050020480500204A05002088
:108C3C004C0500205A0500205B050020790000201F
:108C4C005005002054050020580500205C0500202C
:108C5C006005002064050020680500206C050020DC
:108C6C007005002072050020740500207605002098
:108C7C007805002086050020012176480170764990
:108C8C007648016076480260002176480180002118
:108C9C00754801600021754801600021744801602D
:108CAC0000217448016074497448016008217448BB
:108CBC0001701E21734801806C21734801800B21C7
:108CCC00724801800C2172480180002171480170AA
:108CDC00012171480170714971480160714802604D
:108CEC00002171480180002170480160002170480A
:108CFC00016000216F48016000216F4801605E49EE
:108D0C006E48016009216E4801701E216D4801807A
:108D1C007C216D4801800B216C4801800C216C4832
:108D2C00018000216B48017001216B4801706B4977
:108D3C006B4801606B48026000216B480180002188
:108D4C006A48016000216A4801600021694801609D
:108D5C000021694801604849684801600A21684857
:108D6C0001701E21674801808C21674801800B210E
:108D7C00664801800C21664801800021654801701D
:108D8C0001216548017065496548016065480260CC
:108D9C00002165480180002164480160002164487D
:108DAC000160002163480160002163480160324981
:108DBC00624801600B21624801701E2161480180EC
:108DCC009C21614801800B21604801800C21604886
:108DDC00018000215F48017001215F4801705F49EB
:108DEC005F4801605F48026000215F4801800021FC
:108DFC005E48016000215E48016000215D48016011
:108E0C0000215D4801601C495C4801600C215C48F4
:108E1C0001701E215B480180AC215B4801800B2155
:108E2C005A4801800C215A48018000215948017090
:108E3C00012159480170594959480160594802604B
:108E4C0000215948018000215848016000215848F0
:108E5C0000F0B0B887050020980000207C050020A9
:108E6C008005002084050020880500208C0500204A
:108E7C00900500209405002018070020980500207C
:108E8C009C0500209E050020A0050020A2050020C6
:108E9C00A4050020B2050020B3050020B700002077
:108EAC00A8050020AC050020B0050020B40500206A
:108EBC00B8050020BC050020C0050020C40500201A
:108ECC00C8050020CA050020CC050020CE050020D6
:108EDC00D0050020DE050020DF050020D600002094
:108EEC00D4050020D8050020DC050020E00500207A
:108EFC00E4050020E8050020EC050020F00500202A
:108F0C00F4050020F6050020F8050020FA050020E5
:108F1C00FC0500200A0600200B060020F5000020AE
:108F2C000006002004060020080600200C06002085
:108F3C001006002014060020180600201C06002035
:108F4C0020060020220600202406002026060020F1
:108F5C0028060020360600203706002014010020C9
:108F6C002C06002030060020340600203806002095
:108F7C003C06002040060020440600204806002045
:108F8C004C0600204E060020500600205206002001
:108F9C0054060020620600206306002033010020E6
:108FAC00580600205C0600206006002064060020A5
:108FBC0068060020016000212F48016000212F4825
:108FCC0001602F492F4801600D212F4801701E218F
:108FDC002E480180BC212E4801800B212D48018098
:108FEC000C212D48018000212C48017001212C48B6
:108FFC0001702C492C4801602C48026000212C483F
:10900C00018000212B48016000212B4801600021C8
:10901C002A48016000212A48016019492948016049
:10902C000E21294801701E2128480180CC21284896
:10903C0001800B21274801800C2127480180002149
:10904C0026480170012126480170264926480160F6
:10905C002648026000212648018000212548016035
:10906C00002125480160002124480160002124488A
:10907C00016001B0704700BF6C0600207006002034
:10908C001807002074060020780600207A060020BD
:10909C007C0600207E060020800600208E06002024
:1090AC008F06002052010020840600208806002034
:1090BC008C060020900600209406002098060020C4
:1090CC009C060020A0060020A4060020A606002076
:1090DC00A8060020AA060020AC060020BA06002034
:1090EC00BB06002071010020B0060020B406002051
:1090FC00B8060020BC060020C0060020C4060020D4
:04910C00C806002071
:1091100081B0CDF800E0044908600448FDF714FE72
:10912000DDF800E001B070474C040020000700208B
:009130003F
:106D48008CB0CDF800E0002258490A7000218DF877
:106D5800041000218DF8051000218DF80C105449FD
:106D68000860811C0A8853490988914208D1504912
:106D78000968091D0A8850490988914200D138E0FC
:106D88004E4B0B9319688DF814104D4A0A921168EE
:106D98008DF81510012149B21160002149B219601E
:106DA800434B09931968091D09888AB2194609686D
:106DB800891C098888B291B200F0DCFF3C49096857
:106DC800098888B200F044FE39490968891C0A8894
:106DD80038490A8009990968091D0A8836490A80CC
:106DE8009DF814200B990A609DF815200A990A60ED
:106DF80005E02F490968098888B200F029FE2C4966
:106E08000968891D0A789DF8041091424AD22849D8
:106E1800096808310A889DF8051091421CD2244956
:106E280009680C310A689DF805108900511809682D
:106E38000291091D0A789DF8041091420CD19DF821
:106E48000510491C8DF805109DF80410491C8DF893
:106E580004100298FEF7D0FF1549096810310A8816
:106E68009DF80C1091421CD21149096814310A6826
:106E78009DF80C108900511809680491091D0A78B9
:106E88009DF8041091420CD19DF80C10491C8DF806
:106E98000C109DF80410491C8DF804100498FEF796
:106EA8008BFFACE7DDF800E00CB070473B04002036
:106EB800F8060020FC060020FE0600208C7F084211
:046EC8000C800842F0
:105E000082B0CDF800E000F21A010978012954D1DE
:105E100000F2180109888AB200F2140109680190A1
:105E2000084691B20022FFF731F9019800F208010B
:105E300009888BB2811D09888AB200F210010968B5
:105E40000190084691B29AB2FFF76AF80198811D55
:105E50000D8800F20A010A881A490988511A09B204
:105E6000491009B26C1826B200F208010B8800F242
:105E70000C010A8814490988511A09B2491009B25B
:105E800059180AB221B2A94208D900F210010968D2
:105E900092B20846B1B2FEF799FD0EE000F2080199
:105EA00009888BB2811D09888AB200F21001096845
:105EB000084691B29AB2FEF789FDDDF800E002B023
:0C5EC000704700BFF4060020F60600202A
:10508C0081B0124B1860831C1C78C31C1B781B024C
:10509C009BB2E4180E4B1C80031D1C78431D1B781F
:1050AC001B029BB2E4180B4B1C80831D1C780A4B13
:1050BC001C800A4B19800A4B1A700124094B1C7076
:1050CC000024094B1C7001B0704700BFA82D0020B4
:1050DC00A62D0020AC2D0020AE2D0020B02D0020E0
:0C50EC00A52D002037040020A42D00207A
:104F200083B0CDF800E02A4B1B88994200D34AE0B9
:104F3000284B1B889A4200D345E00024264B1C8056
:104F40000024264B1C80264B1980264B1980264BAB
:104F50001A80264B1A800023019088B291B201F08A
:104F600083FC019899B243181B78F3B1204B1B784E
:104F70006BB143181B780190ADF8081098B2FDF79B
:104F8000B1FBBDF808100198491C89B20CE0431828
:104F90001B780190ADF8081098B2FDF76FFCBDF8D2
:104FA00008100198491C89B2DDE70D4B1C880D4B98
:104FB0001B881C1B084B1C800B4B1C880B4B1B8835
:104FC0001C1B064B1C80DDF800E003B0704700BFDF
:104FD000982D00209A2D0020F4060020F6060020CF
:104FE0009C2D00209E2D0020A02D0020A22D002011
:044FF000A42D0020CC
:1026E40082B0CDF800E082B240F200004C49098883
:1026F4008A4200D28FE04B4909888A4200D98AE095
:1027040047490988511A89B28A0092B24649096830
:1027140008318918ADF8040008460421FEF72CFCA2
:10272400BDF80400414A12784149097800293CD196
:1027340040490C880023404909888B4231D23F49E3
:1027440008880025ADF80400D0B2DAB2BDF8043030
:1027540085421ED23A4909888B4202D238490B80FD
:1027640005E0384909888B4201D936490B8036493E
:1027740009888C4202D234490C8005E03349098827
:102784008C4201D931490C805B1C9BB26D1CEDB2AB
:10279400DEE7641CA4B2511CC9B2C2B298B2CBB277
:1027A400C9E7421C25490A8035E024490C880021E8
:1027B40083B2D0B2CAB2204909888A4228D21D49BC
:1027C4000B88002585421ED21D4909888B4202D2FE
:1027D4001B490B8005E01B4909888B4201D9194923
:1027E4000B80194909888C4202D217490C8005E0F4
:1027F400164909888C4201D914490C805B1E9BB28E
:102804006D1CEDB2DEE7641CA4B2521CD2B2D2E756
:102814005A1E08490A80DDF800E002B0704700BF84
:10282400A62D0020AC2D0020B42D0020B82D0020B2
:10283400A52D0020B22D0020AE2D0020C22D002099
:102844009C2D00209E2D0020A02D0020A22D0020D4
:0028540084
:100F7C0085B0CDF800E0154D0346002922D904AC0C
:100F8C000193ADF80810039522461846104C2468BE
:100F9C00A047039DBDF80810019B04460020BDF836
:100FAC001020904206D222782A706D1C641C401CC2
:100FBC0080B2F4E7BDF81020891A89B2BDF8102070
:100FCC009B18DAE7DDF800E005B07047B82D00207B
:040FDC00C42D002000
:10287C0082B0CDF800E086B240F200054C490978F0
:10288C0049B94C490022084640F2000102F0F8FB1D
:10289C00012247490A70484B1988711A89B28A007B
:1028AC0092B246490968083189180878194609888E
:1028BC008E4200D278E0424909888E4200D973E0FA
:1028CC004049097800293BD13F490B880022ACB222
:1028DC003E4909888A422FD23D49098800259CB27D
:1028EC008BB2854211D23B4909888B4202D23949BD
:1028FC000B8005E0384909888B4201D936490B8099
:10290C005B1C9BB26D1CEDB2EBE7344909888C4221
:10291C0002D232490C8005E0314909888C4201D938
:10292C002F490C80641CA4B2521CD2B2ADF80440E6
:10293C009CB2BDF80430CBE7621C25490A8033E019
:10294C0023490C880022ABB2204909888A4228D23C
:10295C001D490B880025854211D21E4909888B42DE
:10296C0002D21C490B8005E01B4909888B4201D916
:10297C0019490B805B1E9BB26D1CEDB2EBE717493E
:10298C0009888C4202D215490C8005E0144909884B
:10299C008C4201D912490C80641CA4B2521CD2B2D4
:1029AC00D2E75A1E08490A80DDF800E002B07047F1
:1029BC00370400206C2E0300A62D0020A82D00202B
:1029CC00AC2D0020A52D0020B22D0020AE2D002016
:1029DC00C22D00209C2D00209E2D0020A02D00201B
:0429EC00A22D0020F8
:1049CC0083B0CDF800E002901C4B1B88994200D3B9
:1049DC002FE01B4B1B889A4200D32AE00020ADF835
:1049EC00040088B291B201F039FFBDF80400029BBB
:1049FC001B181B78EBB1134B1B7863B1029B1B1874
:104A0C001B78ADF8040098B2FDF7E8FCBDF8040083
:104A1C00411C89B20BE0029B1B181B78ADF80400FB
:104A2C0098B2FDF7DDFABDF80400411C89B288B2DA
:104A3C00DDE7DDF800E003B0704700BF982D0020E3
:084A4C009A2D0020A42D00208A
:1023E8008BB0CDF800E040F20001ADF826100021D6
:1023F8008DF82810AF490988884200D256E1AE49C5
:102408000988884200D951E1AA490988411A89B244
:102418008A0092B2A9490968083189180846042136
:10242800FEF7A8FDA64803788DF82430411C0978EA
:10243800CAB2811C0978090289B25218C11C0978EC
:10244800090489B252189D49096889180491DA0863
:10245800D2B29C490988514389B206919DF824104B
:1024680001F00701C9B221B196490A88069989186D
:1024780006910699089105AC224606990498924C53
:102488002468A0470446059A049989180491059A76
:102498000699891A0691002107918C490978002923
:1024A80040F082808A490988ADF80A1000218DF829
:1024B800091084490A889DF80910914280F06E80BD
:1024C80084490988ADF8261000218DF80C100021E8
:1024D8008DF808109DF824209DF80810914252D2DA
:1024E8009DF80C1059BB0799491C0791089A059942
:1024F80091421AD2059A0799914214D9012107915C
:1025080005AC2246069904986F4C2468A0470446F7
:1025180006990891059A049989180491059A0699CB
:10252800891A0691FFE7204600E0204601788DF8D9
:102538002810441C01218DF80C10204600E020468C
:102548009DF80C209DF828101140C9B251B162497C
:10255800098801908AB2BDF80A10BDF82600FEF776
:102568003BFD0198BDF82610491CADF826109DF8D2
:102578000C1049008DF80C109DF80810491C8DF8B6
:1025880008100446A6E7BDF80A10491CADF80A1061
:102598009DF80910491C8DF809108AE7BDF8261026
:1025A8004A1C4C490A8081E04A490988ADF80A105A
:1025B80000218DF8091043490A889DF809109142B5
:1025C80080F06F8042490988ADF8261000218DF807
:1025D8000C1000218DF808109DF824209DF8081093
:1025E800914253D29DF80C1061BB0799491C079181
:1025F800089A059991421AD2059A0799914214D9D5
:102608000121079105AC2246069904982E4C2468AE
:10261800A047044606990891059A049989180491D7
:10262800059A0699891A0691FFE7204600E0204698
:1026380001788DF82810411C0C4601218DF80C10EA
:10264800204600E020469DF80C209DF828101140F7
:10265800C9B251B12049098801908AB2BDF8261043
:10266800BDF80A00FEF7B8FC0198BDF82610491E0F
:10267800ADF826109DF80C1049008DF80C109DF847
:102688000810491C8DF808100446A5E7BDF80A1083
:10269800491CADF80A109DF80910491C8DF809105D
:1026A80089E7BDF826104A1E09490A80DDF800E0CE
:1026B8000BB07047A62D0020AC2D0020B42D0020B3
:1026C800B82D0020AE2D0020C42D0020A52D0020FF
:0C26D800B22D0020C22D0020B02D0020EB
:100FE00082B0CDF800E0ADF804200AB201B2BDF83D
:100FF0000400002904DB134B1B88994200D200E057
:101000001BE0002A04DB104B1B889A4200D200E050
:1010100013E0002464B20D4B1C60ADF8040088B2EC
:1010200091B20B4C2468A047BDF80400094C246819
:10103000A047012464B2054B1C60DDF800E002B05B
:10104000704700BF982D00209A2D0020987F4E42B7
:08105000C82D0020CC2D00206A
:101FEC0086B0CDF800E085B240F20001ADF81210D9
:101FFC0000218DF814108049097849B97F490022D5
:10200C00084640F2000103F03BF801227A490A70BD
:10201C007B4909888D4200D2EAE07A4909888D42D1
:10202C0000D9E5E076490988691A89B28A0092B22A
:10203C00754C216808318B1819788DF81010591CC3
:10204C000978CAB2991C0978090289B25218D91CAC
:10205C000978090489B25218214609688918039134
:10206C006A490978002940F062806949B1F800801A
:10207C000023684909888B4253D267490988ADF817
:10208C00121040F2000B00218DF80810D8B25FFA44
:10209C008BF99DF810209DF8081091423AD2B9F1B5
:1020AC00000F0BD1039909788DF814100399491C72
:1020BC00039140F201095FFA89F201E05FFA89F2BB
:1020CC009DF814101140C9B2A1B1544909888DF87A
:1020DC0004208DF80500ADF806808AB20FFA88F15D
:1020EC00BDF81200FEF776FFBDF806809DF80500DE
:1020FC009DF80420BDF81210491CADF812105100C7
:10210C005FFA81FB9DF80810491C8DF808105FFAE6
:10211C008BF9BEE708F101081FFA88F8431CDBB203
:10212C00A7E7BDF812104A1C3B490A8060E03A4907
:10213C00B1F800800023374909888B4253D23449C7
:10214C000988ADF8121040F2000B00218DF8081030
:10215C00D8B25FFA8BF99DF810209DF808109142C7
:10216C003AD2B9F1000F0BD1039909788DF81410FC
:10217C000399491C039140F201095FFA89F201E0CD
:10218C005FFA89F29DF814101140C9B2A1B123492C
:10219C0009888DF804208DF80500ADF806808AB208
:1021AC00BDF812100FFA88F0FEF714FFBDF8068088
:1021BC009DF805009DF80420BDF81210491EADF8DD
:1021CC00121051005FFA81FB9DF80810491C8DF824
:1021DC0008105FFA8BF9BEE708F101081FFA88F8BE
:1021EC00411CCBB2A7E7BDF812104A1E08490A8061
:1021FC00DDF800E006B07047370400206C2E0300B9
:10220C00A62D0020AC2D0020A82D0020A52D0020EF
:10221C00B22D0020AE2D0020C22D0020B02D0020AC
:00222C00B2
:105DC00081B0CDF800E000F21401097899B100F239
:105DD00017010978CCB200F2100109680B4600F2F5
:105DE000080109888AB2811D098888B291B21A46D1
:0E5DF000E3B2FEF7D5FEDDF800E001B070472B
:104BA00081B0CDF800E0124C2488A04200D31BE075
:104BB000104C2488A14200D316E0541C24780BE04A
:104BC000FEF70AFA10E0FEF715F90DE0FEF7FEFA1F
:104BD0000AE0FEF755F807E0012CF1D0042CF2D0E2
:104BE000082CF3D0102CF4D0DDF800E001B07047B1
:084BF000982D00209A2D0020F1
:102FD8008CB0CDF800E0ADF824001046ADF828100C
:102FE8008DF82C30851C2C78ADF80A406E1C34788E
:102FF8002502ADB2BDF80A406419ADF80A40751C47
:103008002C78ADF808406E1C34782502ADB2BDF8B6
:1030180008406419ADF80840741C07940DF11606B1
:1030280024783480079C641C079424782502ADB268
:10303800348864193480079C641C0794B51C247870
:103048002C80079C641C0794B61C24782502ADB21A
:10305800348864193480079C641C0794BDF8245094
:10306800534C2488641BADF80C40BDF82850514CD3
:103078002488641BADF80E4000256DB24E4C2560C7
:103088000024ADF81240BDF80A50BDF81240AC4219
:1030980080F08580079C0894BDF80E50BDF812405A
:1030A800AC4200F27680434C2588BDF82840AC42FB
:1030B80080F06F8000248DF815409DF82C509DF805
:1030C8001540AC4280F06580089C0794BDF8281034
:1030D800BDF82400394C2468A04700248DF81A4014
:1030E8000024ADF81040BDF80850BDF81040AC42BF
:1030F80044D29DF81A404CB9079C24788DF80640B4
:10310800079C641C079480248DF81A409DF806508B
:103118009DF81A402C40E4B234B10DF11604A41CF9
:103128002488ADF8044004E00DF116042488ADF8B5
:103138000440BDF80C50BDF81040AC4213D8002430
:103148008DF814409DF82C509DF81440AC420AD2DA
:10315800BDF804001A4C2468A0479DF81440641C6C
:103168008DF81440EEE79DF81A4064088DF81A406F
:10317800BDF81040641CADF81040B4E7BDF8284015
:10318800641CADF828409DF81540641C8DF8154066
:1031980093E7BDF81240641CADF8124073E70125AF
:1031A8006DB2054C2560DDF800E00CB0704700BF3B
:1031B800982D00209A2D0020987F4E42C82D00207F
:0431C800CC2D0020EA
:102DF40093B0CDF800E0ADF840001046ADF84410B3
:102E04008DF84830851C2C78ADF806406E1C34785B
:102E14002502ADB2BDF806406419ADF80640751C34
:102E24002C78ADF804406E1C34782502ADB2BDF8A0
:102E340004406419ADF80440741C0E94BDF840506D
:102E44005F4C2488641BADF80E40BDF844505D4CC3
:102E54002488641BADF8104040F2000B1FFA8BF07D
:102E6400102818D20DF11606440035190E9C24784A
:102E74002C800E9C651C0E95440036192C78250276
:102E8400ADB23488641934800E9C641C0E94441CC6
:102E9400A1B288B2E4E700256DB24B4C2560002452
:102EA400ADF80C40BDF80650BDF80C40AC4280F0C3
:102EB4007F800E9C0F94BDF81050BDF80C40AC42BE
:102EC40000F270803F4C2588BDF84440AC4280F04D
:102ED400698000248DF814409DF848509DF81440F2
:102EE400AC425FD20F9C0E94BDF84410BDF8400074
:102EF400364C2468A0470024ADF80A40BDF80450BD
:102F0400BDF80A40AC4242D2BDF80A4004F00104C4
:102F1400A4B264B19DF8124004F00F04E4B20DF1C0
:102F2400160564002C192488ADF808400FE00E9CA7
:102F340025788DF812500E9C641C0E942C09E4B272
:102F44000DF1160564002C192488ADF80840BDF86D
:102F54000E50BDF80A40AC4213D800248DF813403B
:102F64009DF848509DF81340AC420AD2BDF80800C1
:102F7400174C2468A0479DF81340641C8DF8134037
:102F8400EEE7BDF80A40641CADF80A40B6E7BDF8A8
:102F94004440641CADF844409DF81440641C8DF812
:102FA400144099E7BDF80C40641CADF80C4079E777
:102FB40001256DB2044C2560DDF800E013B07047C4
:102FC400982D00209A2D0020987F4E42C82D002075
:042FD400CC2D0020E0
:1031CC00ADF2282DCDF800E0ADF81C02ADF82012C0
:1031DC008DF82432951C2C78ADF80A406E1C34788E
:1031EC002502ADB2BDF80A406419ADF80A40751C51
:1031FC002C78ADF808406E1C34782502ADB2BDF8C1
:10320C0008406419ADF80840741C8594BDF81C5234
:10321C00524C2488641BADF80E40BDF82052504C23
:10322C002488641BADF8104040F2000A1FFA8AF0A3
:10323C00B0F5807F19D205AE44003519859C2478F1
:10324C002C80859C651C8595440036192C782502AC
:10325C00ADB2348864193480859C641C8594441CFC
:10326C001FFA84FA1FFA8AF0E2E700256DB23D4C92
:10327C0025600024ADF80C40BDF80A50BDF80C4098
:10328C00AC4280F06280859C8694BDF81050BDF8ED
:10329C000C40AC4253D8324C2588BDF82042AC428D
:1032AC004DD200248DF813409DF824529DF8134004
:1032BC00AC4244D2869C8594BDF82012BDF81C0209
:1032CC00294C2468A0470020BDF80840A0422BD20E
:1032DC00859C247805AD64002C192488ADF8064033
:1032EC00859C641C8594BDF80E40A04218D800241F
:1032FC008DF812409DF824529DF81240AC420ED22B
:10330C00ADF80400BDF80600184C2468A047BDF8C1
:10331C0004009DF81240641C8DF81240EAE7FFE7A8
:10332C00441CA1B288B2CFE7BDF82042641CADF8B2
:10333C0020429DF81340641C8DF81340B4E7BDF88F
:10334C000C40641CADF80C4096E701256DB2054CA1
:10335C002560DDF800E00DF2282D7047982D002037
:10336C009A2D0020987F4E42C82D0020CC2D002095
:00337C0051
:102C80008AB0CDF800E0ADF81C00ADF820108DF84A
:102C90002430951C2C78ADF808406E1C3478250241
:102CA000ADB2BDF808406419ADF80840751C2C7829
:102CB000ADF806406E1C34782502ADB2BDF8064072
:102CC0006419ADF80640741C0594BDF81C50444CC2
:102CD0002488641BADF81040BDF82050414C248876
:102CE000641BADF8124000256DB23F4C25600024F6
:102CF000ADF80A40BDF80850BDF80A40AC4280F07B
:102D00006780059C0694BDF81250BDF80A40AC429D
:102D100058D8344C2588BDF82040AC4252D200240B
:102D20008DF80F409DF824509DF80F40AC4249D2D9
:102D3000069C0594BDF82010BDF81C002B4C24689F
:102D4000A0470020BDF80640A04230D2059C247860
:102D5000ADF80C40059C661C34782502ADB2BDF878
:102D60000C406419ADF80C40741C0594BDF810407B
:102D7000A04218D800248DF80E409DF824509DF8EC
:102D80000E40AC420ED2ADF80400BDF80C00184C59
:102D90002468A047BDF804009DF80E40641C8DF81F
:102DA0000E40EAE7FFE7441CA1B288B2CAE7BDF8CB
:102DB0002040641CADF820409DF80F40641C8DF845
:102DC0000F40AFE7BDF80A40641CADF80A4091E738
:102DD00001256DB2044C2560DDF800E00AB07047B3
:102DE000982D00209A2D0020987F4E42C82D00205B
:042DF000CC2D0020C6
:10A1140081B0CDF800E0002204B440F240130122E3
:0EA12400FEF7BCF801B0DDF800E001B07047B6
:0C96080081B0014801B0704780380100BB
:1096140081B0042806D11949096841F0100217499C
:109624000A6028E0052806D11449096841F01102AE
:1096340012490A601FE0062806D11049096841F062
:1096440012020E490A6016E00F2806D10C49096877
:1096540041F001020A490A600DE010280BD3A0F280
:10966400100461098A0007498B1804F01F024FF0A7
:1096740001019140196001B0704700BF24ED00E082
:0896840010E000E000E100E04D
:0E95300081B0EFF3108C604662B601B0704758
:1095400081B0CDF800E08346214A22490A60224AD0
:1095500022490A60224A23490A60234A23490A60B1
:109560002348FFF7E5FD012252B222490A6000BFFD
:1095700000BF00BFFFF714FE00F046F840F2E831EC
:1095800000FB01F210464FEA0B11914206D901226D
:1095900052B219490A604FEA5B0204E0002252B25B
:1095A00015490A605A46C100B1FBF2F1491C4B084B
:1095B0009A0912490A6003F03F0211490A606022C9
:1095C00010490A60FEF75AFEDDF800E001B070476E
:1095D000556A0000E82D002015950000EC2D0020B4
:1095E000A5930000F02D0020FFFFFFFFF42D0020C9
:1095F000984A03008020FC431406184224C000400F
:0896000028C000402CC000400E
:1091300081B0CDF800E082460AF108010978A9B9AA
:109140000AF108010978CCB20AF1060109888BB24C
:109150000AF104010978CAB2DAF800100846D1B25F
:10916000002210B4FFF79CF801B014E00AF10801E6
:109170000978CCB20AF1060109888BB20AF1040120
:109180000978CAB2DAF800100846D1B20F2210B43A
:0E919000FFF786F801B0DDF800E001B070478F
:1091A00081B0002149B204480160044801600448CC
:1091B000016001B0704700BF000618422006184247
:0491C0002406184227
:10827C0081B0012149B204480160044801600448FE
:10828C00016001B0704700BF00061842200618427A
:04829C00240618425A
:10984C0081B0CDF800E0024600241078134640B1F8
:10985C00FDF7FAF8611CC9B2CCB259180978C8B234
:0A986C00F5E7DDF800E001B07047F9
:1098780081B0CDF800E08021244800F047FC202189
:10988800234800F043FC10212148FEF753FA012138
:109898001F4800F03BFC02211D4800F037FC012264
:1098A80052B21C4802601C4802601C4802601C48F6
:1098B8000260002149B21B4801601B4802601B4836
:1098C800016002601A4B40F2070240F20001194899
:1098D800FEF7A8FAFEF754FB43F2FF57C0F26E17E3
:1098E8007F1EFDD100BF00BF00BF00BFFEF764FCB4
:1098F80043F2FF57C0F26E177F1EFDD100BF00BFB5
:1099080000BF00BFDDF800E001B070470040004034
:109918000050024004804A42847F4A4214804A42EE
:10992800947F4A4210804A4200804A42807F4A42DD
:08993800804A030080841E0038
:107E2C0089B0CDF800E007901846ADF820200DF190
:107E3C00100B0BF10B0ADFF818C1FEF747FDADF87C
:107E4C00041001F06FF9BDF8041001256DB2414C1E
:107E5C002560414C206800256DB2404C2560404C9B
:107E6C002160BDF820503F4C25603F4D3F4C2560B4
:107E7C003F4D404C256001F0C1FB40F2E83400FB63
:107E8C0004F5079CB5FBF4F4029429B9029C022C6E
:107E9C0001DA0224029404E0029C0C2C01DA0C247A
:107EAC000294022109B2B1F1FF0F3BDA002212B2A7
:107EBC0010B2B0F5807F2DDA0DB2441C24B26543AC
:107ECC00029C641B0394002C04DA039D4FF0FF34D6
:107EDC006C43039410B9039C059404E0039D059C2A
:107EEC00AC4200DA16E0039D049CAC4202DC039C1D
:107EFC0004B105E0039C04948DF818108DF819005A
:107F0C00049C1CB901248DF81A4003E0441C22B2D5
:107F1C0010B2CEE79DF81A40012C00D102E0891C6A
:107F2C0009B2C0E79DF81850134C25609DF8194014
:107F3C0025022DB20B4C246844EA0505094C25603A
:107F4C0001256DB2054C2560DDF800E009B07047E5
:107F5C00B04A03009020FC4308E10F40840010421B
:107F6C0004800040008000407D550000902D0020D2
:0C7F7C00457A0000942D00201080004089
:1068D80081B01CF8019B0BF8019BBBEB0A0FF8D1A8
:0468E80001B0704744
:107F880081B0CDF800E0012149B21B4801601B48CF
:107F98000160002149B21A4801604AF67F17C0F211
:107FA80003077F1EFDD100BF00BF00BF00BF012136
:107FB80049B2134801601349086800B9FBE740F665
:107FC80000010020FEF79CFC47F600210220FEF786
:107FD80097FC42F200010320FEF792FC00210A48B8
:107FE800017000210948017000210020FEF77AFC89
:107FF800DDF800E001B07047807F4A42847F4A4242
:10800800947F4A42907F4A4214240020152400207D
:0080180068
:1069080082B0CDF800E0C4B2ADF8041001235BB248
:10691800114A136000235BB2104A1360022001F091
:106928008DF8E0B201F08AF801AA521C127890B2F0
:1069380001F084F801AA127890B201F07FF80123DF
:106948005BB2064A1360064B1A6802B9FBE7DDF82A
:1069580000E002B0704700BF807F4A42847F4A420D
:04696800907F4A4290
:1068EC0081B0CDF800E0020292B2521891B20B20A6
:0C68FC0000F004F8DDF800E001B0704787
:1081C00082B0CDF800E000208DF804001E4BC722DD
:1081D00040F200011D48FFF729FE002149B21C486A
:1081E0000160FFF791FA41B200281ADA002918DA83
:1081F0009DF80400052814D2FFF786FA41B241F633
:10820000FE27C0F2B70700BF00BF7F1EFDD100BF31
:1082100000BF00BF00BF9DF80400401C8DF80400A3
:10822000E4E79DF80400052803D3012149B208487A
:108230000160054BC72240F200010648FFF7F6FD3A
:10824000DDF800E002B07047804A0300801A0600A3
:08825000707E04228096980064
:1077080082B0CDF800E000208DF80400012040B2DE
:1077180068B19DF80400322809D2FEF7CDFE41B2C7
:107728009DF80400401C8DF8040048B2F0E79DF86D
:107738000400322806D3FD2149B209480170FF2010
:1077480040B209E0FEF7F2FBFEF75EFD10B1FF2044
:1077580040B201E0002040B2DDF800E002B070471E
:04776800542D00207C
:1064C00081B0CDF800E0FEF7E7FA10B1FF2040B24E
:0E64D00001E0002040B2DDF800E001B07047AE
:104A980082B0CDF800E005213D48017044F20040A5
:104AA800C4F200004FF001014FEAC11140F2401377
:104AB8000122C9B2FEF778FCFDF7C6F900210A29E0
:104AC8000AD2ADF80410FF20324C2468A047BDF884
:104AD8000410481C81B2F2E7FDF770F89522002116
:104AE8000020FDF721F8ADF80600FDF7ADF9BDF897
:104AF8000600012801D0012046E0FDF75FF8872273
:104B080040F2AA110820FDF70FF8ADF80600FF20C3
:104B1800204C2468A047FF201E4C2468A047FF2093
:104B28001C4C2468A047FF201A4C2468A047FDF7B6
:104B38008BF9BDF80600012807D00120FDF7CCF855
:104B480010B10020FDF7C8F802E00220FDF7C4F814
:104B58000F480078052801D1022015E00C4800789C
:104B6800042810D0FDF72AF8FF2240F20021102077
:104B7800FCF7DAFFADF80600FDF766F9BDF80600A8
:104B880008B1032000E00020DDF800E002B0704723
:084B980036040020902D0020DE
:101E500081B0CDF800E0012149B205480160FF20C2
:101E6000044C2468A047DDF800E001B0704700BFD3
:081E70009C7F0842902D002028
:101BC40081B0002149B20248016001B0704700BFF2
:041BD4009C7F0842A8
:101B300084B0CDF800E002918DF80C2000F2400452
:101B4000A0B21F4C2468A04702ABDB1C1B78DCB2A0
:101B5000A0B21B4C2468A04702AB9B1C1B78DCB2D4
:101B6000A0B2174C2468A04702AB5B1C1B78DCB208
:101B7000A0B2134C2468A04702AB1B78DCB2A0B221
:101B80000F4C2468A0479DF80C000D4C2468A0471A
:101B90000021ADF80410FF20094C2468A047BDF8CF
:101BA000041082B24B1C99B200F080039BB213B1B7
:101BB000642900D2EDE790B2DDF800E004B0704790
:041BC000902D002044
:101CE00084B0CDF800E08DF80C000021ADF80410B0
:101CF000BDF8042042F210718A4280F077809DF88E
:101D00000C1099B9FFF75EFFFF2200210120FFF7B9
:101D10000FFFADF8060000F09BF8BDF8061021B9E2
:101D2000002235490A70002061E059E0FFF74AFFC0
:101D3000FF2200213720FFF7FBFEADF8060000F080
:101D400087F8BDF80610012949D1FFF73BFFFF22B4
:101D50004FF080412920FFF7EBFEADF8060000F0C0
:101D600077F8BDF80610002938D19DF80C1002292B
:101D70002FD1FFF727FFFF2200213A20FFF7D8FEDF
:101D8000ADF80600FF201D4C2468A047ADF8080000
:101D9000FF201A4C2468A047FF20184C2468A04755
:101DA000FF20164C2468A04700F052F8BDF806103A
:101DB00071B9BDF8081001F0400189B219B10422CF
:101DC0000D490A7002E003220B490A7000200EE060
:101DD00004E0012208490A70002008E000E005E064
:101DE000BDF80410491CADF8041081E70120DDF8AE
:101DF00000E004B0704700BF36040020902D0020A2
:001E0000E2
:105F340081B0CDF800E0082212B200212248FEF719
:105F44006FFC082212B200212048FEF769FC0822E7
:105F540012B200211E48FEF763FC342212B2002163
:105F64001C48FEF75DFC40F2042212B200211A48DC
:105F7400FEF756FC40F2040109B21C2000B248436B
:105F840002B200211548FEF74BFC4FF0FF311248D6
:105F94000160134913480160012113480170002175
:105FA400124801700021124801600021114801606B
:105FB400002111480160002149B210480170DDF848
:105FC40000E001B0704700BF5C2D0020842D00204C
:105FD4007C2D0020A82A0020DC2A0020E42C0020AC
:105FE400E02C00206C2D0020572D0020562D002081
:105FF400702D0020742D00208C2D0020542D0020A5
:006004009C
:1048240081B013B20246C8B211461DB22CB26B1E3F
:104834001DB214B10870491CF8E7104601B0704766
:0048440074
:1062100081B0CDF800E0FEF7EFFC36480246364884
:1062200090F90000B0F1FF3F02D1FF2040B25CE0E6
:10623000314890F900106FF00300814202D1FF2035
:1062400040B252E02C4890F90000002847D102F2F9
:106250003000FAF761FF294909680818FBF772F85E
:1062600010B1FF2040B240E02248034600F5FF7025
:10627000FAF752FF4AF65521884206D0FC2149B26E
:106280001D480170FF2040B22FE01846FBF748F888
:106290001B49884206D0FA2149B217480170FF20F5
:1062A00040B222E003F5F270FBF73AF81549884254
:1062B00006D0FA2149B210480170FF2040B214E024
:1062C00003F5F470FBF72CF80F49086003F5F6703E
:1062D000FBF726F80D490860002040B205E0FA21DE
:1062E00049B205480170FF2040B2DDF800E001B07E
:1062F000704700BFE02A0020542D0020AC2A002067
:106300005252614172724161D42A0020D82A002081
:006310008D
:104BF80086B0CDF800E0FCF7EBFFA6480190A64888
:104C080090F90000B0F1FF3F02D1FF2040B27EE1F1
:104C1800A14890F900106FF00300814202D1FF20F3
:104C280040B274E19C4890F9000000283DD19B48AF
:104C380000780B2806D0F82149B297480170FF2068
:104C480040B264E196480068FCF778FB10B1FF2099
:104C580040B25CE18F48019000F5FF70FCF758FA0C
:104C68004AF65521884206D0FC2149B28A4801708B
:104C7800FF2040B24BE101980078E9280BD0019859
:104C88000078EB2805D10198801C0078902800D185
:104C980001E0002000E0012030B9FB2149B27E4844
:104CA8000170FF2040B232E116E07B4890F9001015
:104CB8006FF0040081420FD180217A4801700021F1
:104CC8007748016001982030FCF726FB7649086098
:104CD800002149B2704801706F4890F9000000281F
:104CE80040F0D48001980B30FCF712FA6F49088025
:104CF80001980D30FCF74CFA6D49087001980E3098
:104D0800FCF706FA6B490291088001981030FCF70D
:104D18003FFA6949087001982430FCF7FDFA6749A1
:104D2800086001982830FCF7F3F965490880029873
:104D380001885B4800684118624802900160019848
:104D48002C30FCF7E9FA6049086001983030FCF72C
:104D5800DFF95349096809185C480160029801683D
:104D68005B480160002354480078834208D25348C6
:104D7800026857490868801808605B1CDBB2F2E7D4
:104D88004A4A1088410989B2524805900160104684
:104D98000088810889B25048049001601046008854
:104DA800FDF722FE4D490391087041480078FDF750
:104DB8001BFE4B490291087005980068FDF714FE28
:104DC8004849087004980068FDF70EFE46490870C7
:104DD8000298017803980078411809B24348017095
:104DE8004FF0010000FA01F1414801602020FDF771
:104DF800FBFD3E490978091A09B24FF0010000FA93
:104E080001F13C4801600846FDF7EEFD3A4908709B
:104E18002D4801683948016000213948016020485F
:104E280001682B480068411A1F480068411A029817
:104E3800007821FA00F0811C324801601748007898
:104E4800B0B9304801684FF6F770814203D30B219F
:104E5800124801700CE02B48016840F6F770814257
:104E680003D306210D48017002E001210B480170AF
:104E78000A4800780B2806D0F82149B20648017084
:104E8800FF2040B243E0002040B240E0FB2149B29D
:104E9800014839E0E02A0020542D0020A92A0020EA
:104EA800AC2A0020A82A0020B02A0020B42A00201A
:104EB800B62A0020B82A0020BA2A0020BC2A0020DE
:104EC800C02A0020C42A0020C82A0020D02A002096
:104ED800CC2A0020582D0020E02C0020682D00202E
:104EE800692D0020552D0020892A00206A2D0020D8
:104EF800642D0020782D00206B2D0020742D0020BB
:104F08008C2D0020702D00200170FF2040B2DDF8AC
:064F180000E006B0704746
:101BD80083B0CDF800E00020FFF7B0FB10B1FF2084
:101BE80040B26FE0394901913848034601F5FF706A
:101BF800FFF78EFA4AF65521884206D0FC2149B2F1
:101C080033480170FF2040B25CE01878E92808D01A
:101C18001878EB2804D1981C0078902800D100E0AF
:101C280006E0FB2149B22A480170FF2040B249E092
:101C38000023012B44D20C2000FB03F12548401857
:101C48000290019800F5DF7118010818FFF7A0FA53
:101C5800029908700C2000FB03F11E484018401C34
:101C68000290019800F5DF7118010818001DFFF7B0
:101C78008FFA029908700C2000FB03F115484018F0
:101C8800001D0290019800F5DF711801081808304E
:101C9800FFF742FB029908600C2000FB03F10D4896
:101CA800401808300290019800F5DF7118010818F3
:101CB8000C30FFF731FB029908605B1CDBB2B8E718
:101CC800002040B2DDF800E003B07047E02A0020B1
:081CD800542D0020A82A002071
:1013440082B0CDF800E002461349097831B9FF2292
:1013540052B212490A70FF2040B219E010490968DC
:101364008A4213D001920F491046FFF778F8019A88
:1013740050B14FF0FF320A490A60FF2252B20749C6
:101384000A70FF2040B203E005490A60002040B221
:10139400DDF800E002B07047572D0020542D0020E6
:0813A400DC2A0020E02A0020F1
:1004620081B0CDF800E0FFF78AFF10B1FF2040B263
:0E04720001E0002040B2DDF800E001B070476C
:1003800085B0CDF800E00346029101F01BFC1E4A47
:100390001278042A01D1184600E05802FF220146D3
:1003A000112001F0C5FB18B101F052FD012027E03A
:1003B000FF20164C2468A047FE2800D0F8E7002351
:1003C00099B2B1F5007F10D2029A52180492ADF89A
:1003D0000410FF200D4C2468A047BDF80410049AB7
:1003E00010704A1C93B299B2EBE7FF20074C2468C7
:1003F000A047FF20054C2468A04701F029FD0020FC
:10040000DDF800E005B0704736040020902D002094
:00041000EC
:1011180081B0411C09780A0292B20178511888B24C
:0411280001B070475B
:0A11980081B00178C8B201B07047C1
:1013200081B0C11C09780A02811C097851180A028F
:10133000411C097851180A0201785118084601B079
:021340007047F4
:1029F00081B001230022202A09D240EA0301994232
:102A000001D150B205E05B00521CD2B2F3E7FF20C7
:062A100040B201B0704766
:10968C0081B0CDF800E088460146D6B2444C454B3B
:10969C001C60012464B2444B1C60FCF7D7FE01240F
:1096AC0064B2424B1C60FFF7A9FF40F2E83300FBA9
:1096BC0003F420463E4BB4FBF3F422463C4B63438D
:1096CC00C31A0BB9501E00E010463A4B1860062224
:1096DC0012B23948FEF7BAFD042212B2414637489D
:1096EC00FEF7B4FD34480468354B1C60031D1C8820
:1096FC00344B1C60344B1B6843F00604324B1C602B
:10970C000020FEF72BFD06F01003DBB21BB140F47A
:10971C00805080B2FFE706F00803DBB21BB140F4C7
:10972C00005080B2FFE706F00403DBB223B14DF624
:10973C00FF73184080B2FFE706F00203DBB21BB1E7
:10974C0040F4807080B2FFE706F00103DBB223B176
:10975C004FF6FF63184080B2FFE781B20020FEF79E
:10976C0013FD06F00103DBB21BB1002464B2174BEE
:10977C001C6006F00203DBB21BB1012464B2134B74
:10978C001C60012464B2124B1C60124B1C60124B07
:10979C001C60124B1C60DDF800E001B0704700BF8C
:1097AC004A240020242400207821FC437021FC430F
:1097BC00404B4C002480044028240020162A002012
:1097CC0014800440188004400C80044090019042A6
:1097DC00100190420C019042800190420001904295
:0097EC007D
:1082580081B00B46014618460D4614B2531E1AB299
:1082680024B103782B706D1C401CF6E7084601B05A
:0282780070474D
:1081680081B0CDF800E0C1B2C90041F00102054973
:108178000A60FEF711FF04490868DDF800E001B065
:0C818800704700BF20800440308004409D
:106FA00081B045F6BF57C0F200077F1EFDD100BF7C
:0A6FB00000BF00BF00BF01B0704732
:1081940081B0CDF800E0074A1160FEF7FFFEC2B2DD
:1081A400D20042F00303044A1360DDF800E001B09A
:0C81B400704700BF2C8004402080044075
:1097EC0083B0CDF800E08DF80800042212B20021FD
:1097FC000F48FEF7A3FC02220E490A70FEF706FC86
:10980C000D49096801910D49097861B9FEF7E2FE2D
:10981C009DF8082001998A1807490968914201D9D5
:10982C00012001E0EFE70020DDF800E003B0704715
:10983C001A2A0020280400202C040020162A0020BC
:00984C001C
:1081480081B013B20246C8B211461DB22CB26B1EE2
:108158001DB214B10870491CF8E7104601B0704709
:0081680017
:1080180081B0CDF800E063E0042212B200213E48AE
:1080280000F08EF800210120FFF700F83B480168B6
:108038003B48016003213B48017068E0384800680C
:10804800411D36480068884202D90221354801702E
:10805800FFF7E2F8022803D104213248017000E05A
:1080680055E031480078C1B20320FEF7DFFF2B4806
:1080780001682B48016005212A480170FFF7CCF8F8
:1080880081B2062803D104212648017017E005298A
:1080980015D1224801682248016006212148017053
:1080A800042212B221491C4800F0D2F8204A214982
:1080B8002148FFF771FC00211B48017027E026E0EA
:1080C80017480068411C15480068884207D31B49B7
:1080D8000868401E0860114801681148016016E0F0
:1080E8001048007802283FF497AF0E48007803281C
:1080F8003FF4A4AF0B48007804283FF4B2AF094816
:1081080000780528BAD0074800780628D8D0DDF8C6
:1081180000E001B0704700BF162A00202C040020A0
:108128008C2A002028040020290400201A2A002074
:10813800982A0020942A0020902A0020242A00202F
:0081480037
:1070340081B0CDF800E0C7B2CEB240F20008F92525
:107044000C221FFA88F16E48FEF75AFF08F10C086B
:107054001FFA88F8032F0DD166B104221FFA88F1B4
:107064006848FEF74DFF08F10C081FFA88F8F8B2DB
:10707400AFB217E00020ABB2FDB21FFA88F7F4B24A
:1070840086B2042E09D2B9B20020FEF72FFF781C75
:1070940080B2761CB6B287B2F3E71FFA87F89FB2C4
:1070A400E6B2E8B20023C5B20C2B0CD21FFA88F169
:1070B4000020FEF71BFF08F1010080B25B1C9BB2AD
:1070C4001FFA80F8F0E706221FFA88F14E48FEF70F
:1070D40017FF08F106081FFA88F80023CA2B0CD200
:1070E4001FFA88F10020FEF701FF08F1010080B2C9
:1070F4005B1C9BB21FFA80F8F0E706221FFA88F1A6
:107104004248FEF7FDFE08F1060293B291B2E8B2DE
:10711400FEF7ECFE03F101081FFA88F8032D1ED1D7
:1071240006BB1FFA88F13620FEF7E0FE08F10102E3
:1071340093B291B20420FEF7D9FE5A1C1FFA82F8CA
:1071440091B204223248FEF7DBFE08F1040080B25B
:10715400BA1D91B21FFA80F81FFA81FB01E01FFAF1
:1071640087FB01E01FFA87FB05221FFA88F12948F3
:10717400FEF7C6FE08F105021FFA82FC032D23D197
:107184004EBB1FFA8CF13220FEF7B0FE0CF1010267
:1071940093B291B20420FEF7A9FE5C1CA4B20023B2
:1071A4001FFA8BF5042B0BD2164AD2181278A1B20F
:1071B400D0B2FEF79BFE641CA4B25B1C9BB2F1E749
:1071C400A81D80B2A1B203E01FFA8CF11FFA8BF064
:1071D40083B288B203E01FFA8CF01FFA8BF381B2FA
:1071E400FF20FEF783FE9AB204B4432344220A49E3
:1071F4000948FEF705FF01B0DDF800E001B0704773
:107204008C4A03001A2A002028240020526400001B
:0C7214001E2A00205A7D000022040020E9
:105F040081B0ADF800208AB20146BDF8000084B229
:105F1400431E98B244B1054B1B689C180B78237040
:105F2400521C92B2491CF2E701B0704724240020AD
:005F34006D
:105EF00081B0034A12685218107001B0704700BF99
:045F00002424002035
:1060040082B0CDF800E01FFA82F91FFA83FABDF8D6
:10601400087040F2000807F20804A4B204F214065F
:10602400B6B2046824043519654C2560841C2568BF
:10603400634C2560634C2568614C2560624C248860
:1060440004F500255E4C25604525604C01942570BF
:1060540000255F4C2570350AADB23402A4B22D1967
:106064005C4C25805C4D2C88641CA4B22C802502D9
:10607400ADB2240AA4B22D19584C25800025584CE1
:1060840025808025574C25701125574C25700422F6
:1060940012B2564802F0DEF8042212B254495548AE
:1060A40002F0D8F80025544C2580019C247804F093
:1060B4000F04E4B2A400A1B24448FEF7C1FA4E4C66
:1060C40020804E48861C4FEA1A25ADB24FEA0A24B6
:1060D400A4B22C1934804FEA1925ADB24FEA092431
:1060E400A4B22C19048007F20804A4B2061D250AE0
:1060F400ADB22402A4B22C193480851D00242C8056
:1061040000F20804E11907F00104A4B224B101204B
:1061140000240C70491C01E05FFA88F0344C2468B8
:106124000C600D1D2946314C24682C600D1D294638
:1061340000242C704D1C294611242C704D1C304C0D
:1061440024882C802D498C1D019407F20804A4B2E4
:106154000C34A4B224180846A1B2FEF771FA019CCB
:10616400208007F20804A4B204F21405ADB2AC080E
:10617400A4B2A0B2A400A4B22C1BA4B214B10124F2
:1061840064B201E0002464B20419A1B20F48FEF71E
:1061940043FA01256DB21B4C25601A4D2C6804B1DD
:1061A400FBE7194D2C682CB101256DB2164C256006
:1061B400012000E00020DDF800E002B0704700BFDD
:1061C40010800440282400202C2400202E240020A9
:1061D4002F24002030240020E62D0020322400202B
:1061E4003424002036240020372400203E240020BC
:1061F400162A00203A2400203824002042240020BB
:0C62040046240020000790420400904255
:1046440081B04FF0000405464E08B6B288B2B3B24A
:10465400721E91B223B12B88AD1CE4188EB2F6E71A
:1046640000F0010292B212B12A78A01800E02046AC
:10467400020C91B292B232B14FF6FF7200EA02021A
:0E46840052181046F4E7C24390B201B07047DE
:10461C0081B0ADF800100146BDF8000083B2421E17
:10462C0090B223B10B68034A1360091DF6E701B081
:08463C00704700BF108004402C
:1072200082B0CDF800E040F2000300223C219048FB
:10723000016098B2FFF72AFAC1B25E1CB6B2022909
:1072400040F0F980002195B20F2904D2761CB6B225
:10725000491C89B2F8E70422B1B28648FFF7E4F985
:10726000341DA4B20021AAB2082904D2641CA4B21D
:10727000491C89B2F8E70023062B0ED2A0B2FFF713
:1072800005FAC1B2641CA4B27B48C01800788142E0
:1072900000D0E8E05B1C9BB2EEE7002196B2A2B200
:1072A000CE2904D2521C92B2491C89B2F8E70025BB
:1072B000FFE790B2FFF7EAF9C1B2521C92B2A3E025
:1072C00090B2FFF7E3F9C1B2521C92B2012906D184
:1072D00090B2FFF7DBF9C1B2521C92B200E0C2E0FB
:1072E0008EB2A4E090B2FFF7D1F9C1B2501C87B2C0
:1072F000042907D10422B9B26048FFF795F93A1D75
:1073000092B200E0AFE092E090B2FFF7BFF9C7B2EF
:10731000501C1FFA80F8042F09D304221FFA88F1A9
:107320005748FFF781F908F1040292B200E09AE0B1
:107330003C1FA4B2B3B2A1B2601E84B211B1521C00
:1073400092B2F8E79EB272E090B2FFF79FF9C7B22F
:1073500002F101081FFA88F8042F09D304221FFA4A
:1073600088F14848FFF760F908F1040292B200E0A2
:1073700079E03C1FA4B2B3B2A1B2641EA4B211B1B1
:10738000521C92B2F8E79EB251E090B2FFF77EF93C
:10739000C1B2571CBFB2042907D101A80422B9B257
:1073A000FFF742F93A1D92B200E05CE03FE00125B0
:1073B0003DE090B2FFF76AF9C1B2571CBFB2042991
:1073C00011D10422B9B22A48FFF72EF93A1D92B220
:1073D00027480068B0F5E16F04D925490868A0F591
:1073E000E160086000E03EE021E090B2FFF74EF976
:1073F000C1B2521C92B28BB299B2581E83B211B173
:10740000521C92B2F8E712E035293FF459AF012936
:107410003FF468AF03293FF477AF062994D03629AB
:10742000B3D0B1F1FF0FC2D03329C2D0DDE7002DB8
:107430003FF43FAF00E096B2022E08D101A804222B
:1074400012B20146104800F007FFB0B20AE001A8EE
:10745000042212B201460C48FFF7FEF808B10020E2
:1074600000E0B0B200E00020DDF800E002B07047BC
:10747000242A00201A2A002028240020902A0020F4
:0C748000942A0020982A00201E2A0020D8
:10668C0081B00349096809180978C8B201B070478C
:04669C002424002092
:1066280081B0ADF8001091B20246BDF800008CB2FE
:106638004B1E99B244B1054B1B681B181B7813708D
:10664800521C401C80B2F2E701B07047242400209D
:0066580042
:1066580081B0ADF800200246BDF9000004B2431E27
:1066680018B25CB114780B789C4204D014780B787B
:10667800E31A18B204E0521C491CEFE7002000B2EC
:0466880001B07047A6
:1079A00081B0CDF800E00E461746042212B201461F
:1079B0000A4800F051FC042212B23146084800F097
:1079C0004BFC042212B23946064800F045FC06483A
:1079D000FEF752FDDDF800E001B070472C2A0020D0
:0C79E000342A0020A42A0020282A0020BD
:1064780081B0CDF800E00646042212B20C4930463D
:1064880001F0E6FE0020344603280DD823181A78B8
:1064980008490918097881F0FF01C9B242EA0101E7
:1064A8001970401CC0B2EFE7DDF800E001B070479A
:0864B800162A00202C2A002006
:1085E00082B0CDF800E000208DF804000648006855
:1085F000002803D9FFF7BAF88DF804009DF80400AD
:0C860000DDF800E002B070473480044058
:10776C0086B0CDF800E040F20000ADF80400012135
:10777C0049B270480160002149B26F480160FEF7C0
:10778C00A9FE6E49086080B2011F6D48018008B2E5
:10779C00811E6C48018089B240F2EE50814203D8C0
:1077AC006949086800B903E0FEF78AFB0120BCE0D8
:1077BC0066496748059000880880FEF78BFE65498E
:1077CC00086065480490FEF785FE04990860FEF792
:1077DC0081FE5A49086081B26048018005990846CB
:1077EC00028808460088B0F5C16F15D1FEF772FE0D
:1077FC00524908605A4988420DD1FEF76BFE4F4939
:10780C00086040F6FF7100EA010140F20640814237
:10781C0001D1FDF735FD84E0082A40F07F80FEF7AA
:10782C0059FE50490860FEF755FE4F490860FEF7B7
:10783C0051FE4E4908604E480490FEF74BFE0499E9
:10784C0008604C480490FEF745FE049908604948CE
:10785C00042212B24849FEF7F9FE18B9012149B2C7
:10786C00354801604348042212B24449FEF7EEFE4B
:10787C0018B9012149B2304801603E48042212B2C5
:10788C003F49FEF7E3FE30B12B49086818B90220D6
:10789C00ADF8040041E03348007800F0F000C0B2CD
:1078AC00402803D00320ADF8040036E035480188A9
:1078BC004FF6BF7001EA000080B200282DD132488B
:1078CC00007801280ED1FEF705FE304908602F48DC
:1078DC0001684FF6FF7001EA0000082801D1FDF79E
:1078EC0015FC1AE028480078112802D1FDF7CEFDCE
:1078FC0013E02548007806280FD1254A1088010A84
:10790C0089B210460088000280B2081880B200F2DA
:10791C000E010C480180FDF77DFF02E00420ADF85C
:10792C000400FEF7CDFABDF80400DDF800E006B067
:10793C00704700BF00510522045105229C2A0020EB
:10794C008A2A0020222A002010009042742A00204B
:10795C009E2A0020762A00207A2A00207E2A0020E7
:10796C00000108002E2400203224002036240020A0
:10797C003A2400203E240020282A00202204002043
:10798C00162A002034240020372400204224002012
:04799C003024002073
:1064E00081B00449B1F90000001F0880024800682B
:0C64F00001B070478A2A00201080044090
:105ECC0081B0CDF800E00648B0F90000002802DDF2
:105EDC0000F000FBF7E7DDF800E001B0704700BF11
:045EEC008A2A0020DE
:10528C0083B0CDF800E06D480068000E0290C9E0D4
:10529C0001F020F96949086001F01CF967490860C0
:1052AC006749000C80B2088001F014F9634908606A
:1052BC0081B26448018001F00DF9604908606248D0
:1052CC00019001F007F901990860042212B25F49BC
:1052DC005D4801F0BBF9002840F046805C4800684E
:1052EC00000400F21C015B4801605B4801685948EE
:1052FC0001605A480168574801605948008800F11C
:10530C00C16154480160574952480160564951489F
:10531C000160524801684F4801604C480068010424
:10532C004F48008841184B48016049480068010407
:10533C004E48008841184748016047480168454875
:10534C0001603F48016843480160012149B2484867
:10535C0001604749086800B1FBE74649086818B185
:10536C00012149B24348016063E001F0B3F83349CD
:10537C00086001F0AFF8314908603149000C80B287
:10538C00088001F0A7F82D49086081B22D480180F2
:10539C0001F0A0F8294908602B48019001F09AF817
:1053AC0001990860062212B22C49334801F04EF9DB
:1053BC00002836D131480068042212B20146204838
:1053CC0001F044F900282CD12D48019001781420CB
:1053DC0041432C4840180C30062212B21C4902F0F2
:1053EC0035FF264802682648017814204143254899
:1053FC00401808301146042212B202F027FF204850
:10540C000178142041431F4841180120087001986D
:10541C000178142041431B484018011D1A480068AC
:10542C00086006E0029801283FF432AF02283FF4EE
:10543C009CAFDDF800E003B0704700BF9C2A002051
:10544C00842A0020862A0020802A0020162A002088
:10545C007A2A0020108004407C2A00202824002076
:10546C002C2400200001080006040002182A002049
:10547C000007904204009042742A0020302A002039
:0C548C002A040020382A00202C040020F4
:1051180082B0CDF800E0494A1088010289B21046F1
:105128000088000A80B2091889B24548006800045E
:1051380009184448016044480168424801604348EE
:105148000168404801604248008800F500213D4858
:105158000160404A1088010289B210460088000A9E
:1051680080B2081880B2401C80B21080010289B257
:10517800000A80B208181080042212B23649374853
:1051880003F066F8042212B23549334803F060F898
:105198000021344801803448007800F00F00C0B284
:1051A800800087B281B23048FFF748FA2D4908805D
:1051B8002E48019000880E3880B2C01B80B286B29B
:1051C800800880B2401E81B22948FFF710FA2949A9
:1051D800002008602748B1B2FFF730FA2649088056
:1051E80001980088A0F20E0189B2880880B282B2C4
:1051F800800080B2081A80B210B1012040B201E0EC
:10520800002040B2101881B21748FFF703FA0121B5
:1052180049B21A4801601949086800B1FBE7184902
:10522800086828B1012149B215480160012000E051
:105238000020DDF800E002B0704700BF30240020F5
:105248007A2A0020108004407C2A0020282400208C
:105258002C240020322400203A2400203E24002060
:10526800162A0020382400202E240020222A00207C
:1052780046240020422400204424002000079042B5
:04528800040090424C
:1045F60081B0CDF800E0054688B283B2421E94B27F
